{
  "contractName": "PharmacyRole",
  "abi": [
    {
      "inputs": [],
      "payable": false,
      "stateMutability": "nonpayable",
      "type": "constructor"
    },
    {
      "anonymous": false,
      "inputs": [
        {
          "indexed": true,
          "name": "account",
          "type": "address"
        }
      ],
      "name": "PharmacyAdded",
      "type": "event"
    },
    {
      "anonymous": false,
      "inputs": [
        {
          "indexed": true,
          "name": "account",
          "type": "address"
        }
      ],
      "name": "PharmacyRemoved",
      "type": "event"
    },
    {
      "constant": true,
      "inputs": [
        {
          "name": "account",
          "type": "address"
        }
      ],
      "name": "isPharmacy",
      "outputs": [
        {
          "name": "",
          "type": "bool"
        }
      ],
      "payable": false,
      "stateMutability": "view",
      "type": "function"
    },
    {
      "constant": false,
      "inputs": [
        {
          "name": "account",
          "type": "address"
        }
      ],
      "name": "addPharmacy",
      "outputs": [],
      "payable": false,
      "stateMutability": "nonpayable",
      "type": "function"
    },
    {
      "constant": false,
      "inputs": [],
      "name": "renouncePharmacy",
      "outputs": [],
      "payable": false,
      "stateMutability": "nonpayable",
      "type": "function"
    }
  ],
  "bytecode": "0x608060405234801561001057600080fd5b506100293361002e640100000000026401000000009004565b6101e8565b61004f81600061009564010000000002610350179091906401000000009004565b8073ffffffffffffffffffffffffffffffffffffffff167fe6c049ab5a3c2ae523452b89e43795966fec2f89b7bf443d91781a7c696d301760405160405180910390a250565b600073ffffffffffffffffffffffffffffffffffffffff168173ffffffffffffffffffffffffffffffffffffffff16141515156100d157600080fd5b6100ea8282610154640100000000026401000000009004565b1515156100f657600080fd5b60018260000160008373ffffffffffffffffffffffffffffffffffffffff1673ffffffffffffffffffffffffffffffffffffffff16815260200190815260200160002060006101000a81548160ff0219169083151502179055505050565b60008073ffffffffffffffffffffffffffffffffffffffff168273ffffffffffffffffffffffffffffffffffffffff161415151561019157600080fd5b8260000160008373ffffffffffffffffffffffffffffffffffffffff1673ffffffffffffffffffffffffffffffffffffffff16815260200190815260200160002060009054906101000a900460ff16905092915050565b61042c806101f76000396000f300608060405260043610610057576000357c0100000000000000000000000000000000000000000000000000000000900463ffffffff16806343df7e071461005c578063afd675f814610073578063dfb0fda3146100b6575b600080fd5b34801561006857600080fd5b50610071610111565b005b34801561007f57600080fd5b506100b4600480360381019080803573ffffffffffffffffffffffffffffffffffffffff16906020019092919050505061011c565b005b3480156100c257600080fd5b506100f7600480360381019080803573ffffffffffffffffffffffffffffffffffffffff16906020019092919050505061013c565b604051808215151515815260200191505060405180910390f35b61011a33610159565b565b6101253361013c565b151561013057600080fd5b610139816101b3565b50565b600061015282600061020d90919063ffffffff16565b9050919050565b61016d8160006102a190919063ffffffff16565b8073ffffffffffffffffffffffffffffffffffffffff167f46520b63a5e163f23aef94d996e90fbbec9b8959d1dd37aeb9bcb5a3a20ac5c960405160405180910390a250565b6101c781600061035090919063ffffffff16565b8073ffffffffffffffffffffffffffffffffffffffff167fe6c049ab5a3c2ae523452b89e43795966fec2f89b7bf443d91781a7c696d301760405160405180910390a250565b60008073ffffffffffffffffffffffffffffffffffffffff168273ffffffffffffffffffffffffffffffffffffffff161415151561024a57600080fd5b8260000160008373ffffffffffffffffffffffffffffffffffffffff1673ffffffffffffffffffffffffffffffffffffffff16815260200190815260200160002060009054906101000a900460ff16905092915050565b600073ffffffffffffffffffffffffffffffffffffffff168173ffffffffffffffffffffffffffffffffffffffff16141515156102dd57600080fd5b6102e7828261020d565b15156102f257600080fd5b60008260000160008373ffffffffffffffffffffffffffffffffffffffff1673ffffffffffffffffffffffffffffffffffffffff16815260200190815260200160002060006101000a81548160ff0219169083151502179055505050565b600073ffffffffffffffffffffffffffffffffffffffff168173ffffffffffffffffffffffffffffffffffffffff161415151561038c57600080fd5b610396828261020d565b1515156103a257600080fd5b60018260000160008373ffffffffffffffffffffffffffffffffffffffff1673ffffffffffffffffffffffffffffffffffffffff16815260200190815260200160002060006101000a81548160ff02191690831515021790555050505600a165627a7a72305820a5039588d9d7037fb8c34af0dc3154cf329ad945ea2e29210db39d1663ed84320029",
  "source": "pragma solidity ^ 0.4 .24;\n\n// Import the library 'Roles'\nimport \"./Roles.sol\";\n\n// Define a contract 'PharmacyRole' to manage this role - add, remove, check\ncontract PharmacyRole {\n  using Roles\n  for Roles.Role;\n\n  // Define 2 events, one for Adding, and other for Removing\n  event PharmacyAdded(address indexed account);\n  event PharmacyRemoved(address indexed account);\n\n  // Define a struct 'Pharmacies' by inheriting from 'Roles' library, struct Role\n  Roles.Role private Pharmacies;\n\n  // In the constructor make the address that deploys this contract the 1st Pharmacy\n  constructor() public {\n    _addPharmacy(msg.sender);\n  }\n\n  // Define a modifier that checks to see if msg.sender has the appropriate role\n  modifier onlyPharmacy() {\n    require(isPharmacy(msg.sender));\n    _;\n  }\n\n  // Define a function 'isPharmacy' to check this role\n  function isPharmacy(address account) public view returns(bool) {\n    return Pharmacies.has(account);\n  }\n\n  // Define a function 'addPharmacy' that adds this role\n  function addPharmacy(address account) public onlyPharmacy {\n    _addPharmacy(account);\n  }\n\n  // Define a function 'renouncePharmacy' to renounce this role\n  function renouncePharmacy() public {\n    _removePharmacy(msg.sender);\n  }\n\n  // Define an internal function '_addPharmacy' to add this role, called by 'addPharmacy'\n  function _addPharmacy(address account) internal {\n    Pharmacies.add(account);\n    emit PharmacyAdded(account);\n  }\n\n  // Define an internal function '_removePharmacy' to remove this role, called by 'removePharmacy'\n  function _removePharmacy(address account) internal {\n    Pharmacies.remove(account);\n    emit PharmacyRemoved(account);\n  }\n}",
  "sourcePath": "/home/isb/Desktop/Udacity Blockchain/Ethereum/p7/contracts/accesscontrol/PharmacyRole.sol",
  "compiler": {
    "name": "solc",
    "version": "0.4.25+commit.59dbf8f1.Emscripten.clang"
  },
  "schemaVersion": "2.0.2",
  "updatedAt": "2019-03-20T19:22:10.036Z"
}