{
  "contractName": "SupplyChain",
  "abi": [
    {
      "constant": false,
      "inputs": [
        {
          "name": "account",
          "type": "address"
        }
      ],
      "name": "addConsumer",
      "outputs": [],
      "payable": false,
      "stateMutability": "nonpayable",
      "type": "function"
    },
    {
      "constant": false,
      "inputs": [],
      "name": "renouncePharmacy",
      "outputs": [],
      "payable": false,
      "stateMutability": "nonpayable",
      "type": "function"
    },
    {
      "constant": false,
      "inputs": [],
      "name": "renounceConsumer",
      "outputs": [],
      "payable": false,
      "stateMutability": "nonpayable",
      "type": "function"
    },
    {
      "constant": false,
      "inputs": [],
      "name": "renounceOwnership",
      "outputs": [],
      "payable": false,
      "stateMutability": "nonpayable",
      "type": "function"
    },
    {
      "constant": true,
      "inputs": [
        {
          "name": "account",
          "type": "address"
        }
      ],
      "name": "isConsumer",
      "outputs": [
        {
          "name": "",
          "type": "bool"
        }
      ],
      "payable": false,
      "stateMutability": "view",
      "type": "function"
    },
    {
      "constant": true,
      "inputs": [],
      "name": "owner",
      "outputs": [
        {
          "name": "",
          "type": "address"
        }
      ],
      "payable": false,
      "stateMutability": "view",
      "type": "function"
    },
    {
      "constant": true,
      "inputs": [],
      "name": "isOwner",
      "outputs": [
        {
          "name": "",
          "type": "bool"
        }
      ],
      "payable": false,
      "stateMutability": "view",
      "type": "function"
    },
    {
      "constant": false,
      "inputs": [
        {
          "name": "account",
          "type": "address"
        }
      ],
      "name": "addPharmacy",
      "outputs": [],
      "payable": false,
      "stateMutability": "nonpayable",
      "type": "function"
    },
    {
      "constant": false,
      "inputs": [
        {
          "name": "account",
          "type": "address"
        }
      ],
      "name": "addProducer",
      "outputs": [],
      "payable": false,
      "stateMutability": "nonpayable",
      "type": "function"
    },
    {
      "constant": true,
      "inputs": [
        {
          "name": "account",
          "type": "address"
        }
      ],
      "name": "isPharmacy",
      "outputs": [
        {
          "name": "",
          "type": "bool"
        }
      ],
      "payable": false,
      "stateMutability": "view",
      "type": "function"
    },
    {
      "constant": false,
      "inputs": [
        {
          "name": "newOwner",
          "type": "address"
        }
      ],
      "name": "transferOwnership",
      "outputs": [],
      "payable": false,
      "stateMutability": "nonpayable",
      "type": "function"
    },
    {
      "constant": true,
      "inputs": [
        {
          "name": "account",
          "type": "address"
        }
      ],
      "name": "isProducer",
      "outputs": [
        {
          "name": "",
          "type": "bool"
        }
      ],
      "payable": false,
      "stateMutability": "view",
      "type": "function"
    },
    {
      "constant": false,
      "inputs": [],
      "name": "renounceProducer",
      "outputs": [],
      "payable": false,
      "stateMutability": "nonpayable",
      "type": "function"
    },
    {
      "inputs": [],
      "payable": true,
      "stateMutability": "payable",
      "type": "constructor"
    },
    {
      "anonymous": false,
      "inputs": [
        {
          "indexed": false,
          "name": "BatchID",
          "type": "uint256"
        }
      ],
      "name": "Produced",
      "type": "event"
    },
    {
      "anonymous": false,
      "inputs": [
        {
          "indexed": false,
          "name": "BatchID",
          "type": "uint256"
        }
      ],
      "name": "Tested",
      "type": "event"
    },
    {
      "anonymous": false,
      "inputs": [
        {
          "indexed": false,
          "name": "PackID",
          "type": "uint256"
        }
      ],
      "name": "Packed",
      "type": "event"
    },
    {
      "anonymous": false,
      "inputs": [
        {
          "indexed": false,
          "name": "PackID",
          "type": "uint256"
        }
      ],
      "name": "PackForSale",
      "type": "event"
    },
    {
      "anonymous": false,
      "inputs": [
        {
          "indexed": false,
          "name": "PackID",
          "type": "uint256"
        }
      ],
      "name": "PackSold",
      "type": "event"
    },
    {
      "anonymous": false,
      "inputs": [
        {
          "indexed": false,
          "name": "PackID",
          "type": "uint256"
        }
      ],
      "name": "Shipped",
      "type": "event"
    },
    {
      "anonymous": false,
      "inputs": [
        {
          "indexed": false,
          "name": "PackID",
          "type": "uint256"
        }
      ],
      "name": "Received",
      "type": "event"
    },
    {
      "anonymous": false,
      "inputs": [
        {
          "indexed": false,
          "name": "VialID",
          "type": "uint256"
        }
      ],
      "name": "VialForSale",
      "type": "event"
    },
    {
      "anonymous": false,
      "inputs": [
        {
          "indexed": false,
          "name": "VialID",
          "type": "uint256"
        }
      ],
      "name": "VialSold",
      "type": "event"
    },
    {
      "anonymous": false,
      "inputs": [
        {
          "indexed": false,
          "name": "VialID",
          "type": "uint256"
        }
      ],
      "name": "Consumed",
      "type": "event"
    },
    {
      "anonymous": false,
      "inputs": [
        {
          "indexed": true,
          "name": "oldOwner",
          "type": "address"
        },
        {
          "indexed": true,
          "name": "newOwner",
          "type": "address"
        }
      ],
      "name": "TransferOwnership",
      "type": "event"
    },
    {
      "anonymous": false,
      "inputs": [
        {
          "indexed": true,
          "name": "account",
          "type": "address"
        }
      ],
      "name": "ProducerAdded",
      "type": "event"
    },
    {
      "anonymous": false,
      "inputs": [
        {
          "indexed": true,
          "name": "account",
          "type": "address"
        }
      ],
      "name": "ProducerRemoved",
      "type": "event"
    },
    {
      "anonymous": false,
      "inputs": [
        {
          "indexed": true,
          "name": "account",
          "type": "address"
        }
      ],
      "name": "PharmacyAdded",
      "type": "event"
    },
    {
      "anonymous": false,
      "inputs": [
        {
          "indexed": true,
          "name": "account",
          "type": "address"
        }
      ],
      "name": "PharmacyRemoved",
      "type": "event"
    },
    {
      "anonymous": false,
      "inputs": [
        {
          "indexed": true,
          "name": "account",
          "type": "address"
        }
      ],
      "name": "ConsumerAdded",
      "type": "event"
    },
    {
      "anonymous": false,
      "inputs": [
        {
          "indexed": true,
          "name": "account",
          "type": "address"
        }
      ],
      "name": "ConsumerRemoved",
      "type": "event"
    },
    {
      "constant": false,
      "inputs": [],
      "name": "kill",
      "outputs": [],
      "payable": false,
      "stateMutability": "nonpayable",
      "type": "function"
    },
    {
      "constant": false,
      "inputs": [
        {
          "name": "_BatchID",
          "type": "uint256"
        },
        {
          "name": "_originProducerID",
          "type": "address"
        },
        {
          "name": "_originProducerName",
          "type": "string"
        },
        {
          "name": "_productNotes",
          "type": "string"
        }
      ],
      "name": "Produce_New_Batch",
      "outputs": [],
      "payable": false,
      "stateMutability": "nonpayable",
      "type": "function"
    },
    {
      "constant": false,
      "inputs": [
        {
          "name": "_BatchID",
          "type": "uint256"
        }
      ],
      "name": "TestBatch",
      "outputs": [],
      "payable": false,
      "stateMutability": "nonpayable",
      "type": "function"
    },
    {
      "constant": false,
      "inputs": [
        {
          "name": "_batchID",
          "type": "uint256"
        }
      ],
      "name": "Pack_insulin_vials",
      "outputs": [],
      "payable": false,
      "stateMutability": "nonpayable",
      "type": "function"
    },
    {
      "constant": false,
      "inputs": [
        {
          "name": "_PackID",
          "type": "uint256"
        },
        {
          "name": "_Price",
          "type": "uint256"
        }
      ],
      "name": "Add_Insulin_Pack_For_Sale",
      "outputs": [],
      "payable": false,
      "stateMutability": "nonpayable",
      "type": "function"
    },
    {
      "constant": false,
      "inputs": [
        {
          "name": "_PackID",
          "type": "uint256"
        }
      ],
      "name": "Purchase_insulin_Pack",
      "outputs": [],
      "payable": true,
      "stateMutability": "payable",
      "type": "function"
    },
    {
      "constant": false,
      "inputs": [
        {
          "name": "_PackID",
          "type": "uint256"
        }
      ],
      "name": "Ship_insulin_Pack",
      "outputs": [],
      "payable": false,
      "stateMutability": "nonpayable",
      "type": "function"
    },
    {
      "constant": false,
      "inputs": [
        {
          "name": "_PackID",
          "type": "uint256"
        }
      ],
      "name": "Receive_insulin_Pack",
      "outputs": [],
      "payable": false,
      "stateMutability": "nonpayable",
      "type": "function"
    },
    {
      "constant": false,
      "inputs": [
        {
          "name": "_VialID",
          "type": "uint256"
        },
        {
          "name": "_Price",
          "type": "uint256"
        }
      ],
      "name": "Add_Insulin_Vial_For_Sale",
      "outputs": [],
      "payable": false,
      "stateMutability": "nonpayable",
      "type": "function"
    },
    {
      "constant": false,
      "inputs": [
        {
          "name": "_VialID",
          "type": "uint256"
        }
      ],
      "name": "Purchase_Insulin_Vial",
      "outputs": [],
      "payable": true,
      "stateMutability": "payable",
      "type": "function"
    },
    {
      "constant": false,
      "inputs": [
        {
          "name": "_VialID",
          "type": "uint256"
        }
      ],
      "name": "Consume_Insulin",
      "outputs": [],
      "payable": false,
      "stateMutability": "nonpayable",
      "type": "function"
    },
    {
      "constant": true,
      "inputs": [
        {
          "name": "_BatchID",
          "type": "uint256"
        }
      ],
      "name": "fetchBatchBuffer",
      "outputs": [
        {
          "name": "batchID",
          "type": "uint256"
        },
        {
          "name": "originProducerID",
          "type": "address"
        },
        {
          "name": "originProducerName",
          "type": "string"
        },
        {
          "name": "productNotes",
          "type": "string"
        },
        {
          "name": "itemState",
          "type": "uint256"
        },
        {
          "name": "packID",
          "type": "uint256"
        }
      ],
      "payable": false,
      "stateMutability": "view",
      "type": "function"
    },
    {
      "constant": true,
      "inputs": [
        {
          "name": "_PackID",
          "type": "uint256"
        }
      ],
      "name": "fetchPackBuffer",
      "outputs": [
        {
          "name": "ownerID",
          "type": "address"
        },
        {
          "name": "productPrice",
          "type": "uint256"
        },
        {
          "name": "ProducerID",
          "type": "address"
        },
        {
          "name": "PharmacyID",
          "type": "address"
        },
        {
          "name": "itemState",
          "type": "uint256"
        },
        {
          "name": "",
          "type": "uint256[10]"
        }
      ],
      "payable": false,
      "stateMutability": "view",
      "type": "function"
    },
    {
      "constant": true,
      "inputs": [
        {
          "name": "_vialID",
          "type": "uint256"
        }
      ],
      "name": "fetchVialBuffer",
      "outputs": [
        {
          "name": "vialID",
          "type": "uint256"
        },
        {
          "name": "batchID",
          "type": "uint256"
        },
        {
          "name": "ownerID",
          "type": "address"
        },
        {
          "name": "originProducerID",
          "type": "address"
        },
        {
          "name": "originProducerName",
          "type": "string"
        },
        {
          "name": "productNotes",
          "type": "string"
        },
        {
          "name": "productPrice",
          "type": "uint256"
        },
        {
          "name": "itemState",
          "type": "uint256"
        },
        {
          "name": "PharmacyID",
          "type": "address"
        },
        {
          "name": "consumerID",
          "type": "address"
        }
      ],
      "payable": false,
      "stateMutability": "view",
      "type": "function"
    }
  ],
  "bytecode": "0x60806040526200001e336200012e640100000000026401000000009004565b620000383362000198640100000000026401000000009004565b620000523362000202640100000000026401000000009004565b33600360006101000a81548173ffffffffffffffffffffffffffffffffffffffff021916908373ffffffffffffffffffffffffffffffffffffffff160217905550600360009054906101000a900473ffffffffffffffffffffffffffffffffffffffff1673ffffffffffffffffffffffffffffffffffffffff16600073ffffffffffffffffffffffffffffffffffffffff167f5c486528ec3e3f0ea91181cff8116f02bfa350e03b8b6f12e00765adbb5af85c60405160405180910390a3600160058190555060016004819055506001600681905550620003c4565b620001528160006200026c6401000000000262003872179091906401000000009004565b8073ffffffffffffffffffffffffffffffffffffffff167f28b26e7a3d20aedbc5f8f2ebf7da671c0491723a2b78f47a097b0e46dee0714260405160405180910390a250565b620001bc8160016200026c6401000000000262003872179091906401000000009004565b8073ffffffffffffffffffffffffffffffffffffffff167fe6c049ab5a3c2ae523452b89e43795966fec2f89b7bf443d91781a7c696d301760405160405180910390a250565b620002268160026200026c6401000000000262003872179091906401000000009004565b8073ffffffffffffffffffffffffffffffffffffffff167f2977383b0207d39ef14220620b6cf3e6c9b6e78592af90baeef6614ed2fcd2c660405160405180910390a250565b600073ffffffffffffffffffffffffffffffffffffffff168173ffffffffffffffffffffffffffffffffffffffff1614151515620002a957600080fd5b620002c482826200032f640100000000026401000000009004565b151515620002d157600080fd5b60018260000160008373ffffffffffffffffffffffffffffffffffffffff1673ffffffffffffffffffffffffffffffffffffffff16815260200190815260200160002060006101000a81548160ff0219169083151502179055505050565b60008073ffffffffffffffffffffffffffffffffffffffff168273ffffffffffffffffffffffffffffffffffffffff16141515156200036d57600080fd5b8260000160008373ffffffffffffffffffffffffffffffffffffffff1673ffffffffffffffffffffffffffffffffffffffff16815260200190815260200160002060009054906101000a900460ff16905092915050565b613ccb80620003d46000396000f30060806040526004361061015f576000357c0100000000000000000000000000000000000000000000000000000000900463ffffffff16806305d9892a14610164578063112940f91461019b57806330a7ad78146101de5780633b1940421461020b57806341c0e1b51461023857806343df7e071461024f5780635fddb00e1461026657806361e6982d146103c0578063715018a6146103d7578063834ff739146103ee5780638da5cb5b146104495780638f32d59b146104a057806390003414146104cf578063a33d2d3b146105a8578063afd675f8146105d5578063b7d3133414610618578063ba1f6f891461064f578063bc6059c714610849578063cae1950c14610869578063cf8c4db914610979578063ddf8016614610999578063dfb0fda3146109dc578063eed34c0d14610a37578063f2fde38b14610a64578063f552102214610aa7578063f5d4c9ce14610b02578063f9b867d814610b2f575b600080fd5b34801561017057600080fd5b506101996004803603810190808035906020019092919080359060200190929190505050610b46565b005b3480156101a757600080fd5b506101dc600480360381019080803573ffffffffffffffffffffffffffffffffffffffff169060200190929190505050610d76565b005b3480156101ea57600080fd5b5061020960048036038101908080359060200190929190505050610d96565b005b34801561021757600080fd5b5061023660048036038101908080359060200190929190505050610ef7565b005b34801561024457600080fd5b5061024d6110aa565b005b34801561025b57600080fd5b50610264611100565b005b34801561027257600080fd5b506102916004803603810190808035906020019092919050505061110b565b604051808781526020018673ffffffffffffffffffffffffffffffffffffffff1673ffffffffffffffffffffffffffffffffffffffff1681526020018060200180602001858152602001848152602001838103835287818151815260200191508051906020019080838360005b838110156103195780820151818401526020810190506102fe565b50505050905090810190601f1680156103465780820380516001836020036101000a031916815260200191505b50838103825286818151815260200191508051906020019080838360005b8381101561037f578082015181840152602081019050610364565b50505050905090810190601f1680156103ac5780820380516001836020036101000a031916815260200191505b509850505050505050505060405180910390f35b3480156103cc57600080fd5b506103d561132d565b005b3480156103e357600080fd5b506103ec611338565b005b3480156103fa57600080fd5b5061042f600480360381019080803573ffffffffffffffffffffffffffffffffffffffff16906020019092919050505061143a565b604051808215151515815260200191505060405180910390f35b34801561045557600080fd5b5061045e611457565b604051808273ffffffffffffffffffffffffffffffffffffffff1673ffffffffffffffffffffffffffffffffffffffff16815260200191505060405180910390f35b3480156104ac57600080fd5b506104b5611481565b604051808215151515815260200191505060405180910390f35b3480156104db57600080fd5b506105a660048036038101908080359060200190929190803573ffffffffffffffffffffffffffffffffffffffff169060200190929190803590602001908201803590602001908080601f0160208091040260200160405190810160405280939291908181526020018383808284378201915050505050509192919290803590602001908201803590602001908080601f01602080910402602001604051908101604052809392919081815260200183838082843782019150505050505091929192905050506114d9565b005b3480156105b457600080fd5b506105d3600480360381019080803590602001909291905050506117e7565b005b3480156105e157600080fd5b50610616600480360381019080803573ffffffffffffffffffffffffffffffffffffffff1690602001909291905050506119ae565b005b34801561062457600080fd5b5061064d60048036038101908080359060200190929190803590602001909291905050506119ce565b005b34801561065b57600080fd5b5061067a60048036038101908080359060200190929190505050611bfe565b604051808b81526020018a81526020018973ffffffffffffffffffffffffffffffffffffffff1673ffffffffffffffffffffffffffffffffffffffff1681526020018873ffffffffffffffffffffffffffffffffffffffff1673ffffffffffffffffffffffffffffffffffffffff16815260200180602001806020018781526020018681526020018573ffffffffffffffffffffffffffffffffffffffff1673ffffffffffffffffffffffffffffffffffffffff1681526020018473ffffffffffffffffffffffffffffffffffffffff1673ffffffffffffffffffffffffffffffffffffffff168152602001838103835289818151815260200191508051906020019080838360005b8381101561079e578082015181840152602081019050610783565b50505050905090810190601f1680156107cb5780820380516001836020036101000a031916815260200191505b50838103825288818151815260200191508051906020019080838360005b838110156108045780820151818401526020810190506107e9565b50505050905090810190601f1680156108315780820380516001836020036101000a031916815260200191505b509c5050505050505050505050505060405180910390f35b61086760048036038101908080359060200190929190505050611efa565b005b34801561087557600080fd5b50610894600480360381019080803590602001909291905050506123b1565b604051808773ffffffffffffffffffffffffffffffffffffffff1673ffffffffffffffffffffffffffffffffffffffff1681526020018681526020018573ffffffffffffffffffffffffffffffffffffffff1673ffffffffffffffffffffffffffffffffffffffff1681526020018473ffffffffffffffffffffffffffffffffffffffff1673ffffffffffffffffffffffffffffffffffffffff16815260200183815260200182600a60200280838360005b83811015610961578082015181840152602081019050610946565b50505050905001965050505050505060405180910390f35b6109976004803603810190808035906020019092919050505061252e565b005b3480156109a557600080fd5b506109da600480360381019080803573ffffffffffffffffffffffffffffffffffffffff1690602001909291905050506128c0565b005b3480156109e857600080fd5b50610a1d600480360381019080803573ffffffffffffffffffffffffffffffffffffffff1690602001909291905050506128e0565b604051808215151515815260200191505060405180910390f35b348015610a4357600080fd5b50610a62600480360381019080803590602001909291905050506128fd565b005b348015610a7057600080fd5b50610aa5600480360381019080803573ffffffffffffffffffffffffffffffffffffffff169060200190929190505050612b11565b005b348015610ab357600080fd5b50610ae8600480360381019080803573ffffffffffffffffffffffffffffffffffffffff169060200190929190505050612b5e565b604051808215151515815260200191505060405180910390f35b348015610b0e57600080fd5b50610b2d60048036038101908080359060200190929190505050612b7b565b005b348015610b3b57600080fd5b50610b446134bb565b005b610b4f33612b5e565b1515610b5a57600080fd5b8160026009811115610b6857fe5b6009600083815260200190815260200160002060030160009054906101000a900460ff166009811115610b9757fe5b141515610c0c576040517f08c379a000000000000000000000000000000000000000000000000000000000815260040180806020018281038252601e8152602001807f546865204261746368204861732059657420546f204265205061636b6564000081525060200191505060405180910390fd5b823373ffffffffffffffffffffffffffffffffffffffff166008600083815260200190815260200160002060020160009054906101000a900473ffffffffffffffffffffffffffffffffffffffff1673ffffffffffffffffffffffffffffffffffffffff16141515610ce6576040517f08c379a000000000000000000000000000000000000000000000000000000000815260040180806020018281038252601a8152602001807f596f7520417265204e6f7420546865205669616c204f776e657200000000000081525060200191505060405180910390fd5b82600960008681526020019081526020016000206002018190555060036009600086815260200190815260200160002060030160006101000a81548160ff02191690836009811115610d3457fe5b02179055507f9baac0944806ce191e3acb1dc47ac91f48cc1dee8217da70db9d4b6eec83298c846040518082815260200191505060405180910390a150505050565b610d7f3361143a565b1515610d8a57600080fd5b610d93816134c6565b50565b610d9f3361143a565b1515610daa57600080fd5b803373ffffffffffffffffffffffffffffffffffffffff166008600083815260200190815260200160002060020160009054906101000a900473ffffffffffffffffffffffffffffffffffffffff1673ffffffffffffffffffffffffffffffffffffffff16141515610e84576040517f08c379a000000000000000000000000000000000000000000000000000000000815260040180806020018281038252601a8152602001807f596f7520417265204e6f7420546865205669616c204f776e657200000000000081525060200191505060405180910390fd5b60096008600084815260200190815260200160002060070160006101000a81548160ff02191690836009811115610eb757fe5b02179055507f6a52cd7f75cfe8b2cd55f985879f8566d6a538bccd6ff5b03501046cca793cfa826040518082815260200191505060405180910390a15050565b60008160056009811115610f0757fe5b6009600083815260200190815260200160002060030160009054906101000a900460ff166009811115610f3657fe5b141515610fab576040517f08c379a000000000000000000000000000000000000000000000000000000000815260040180806020018281038252601e8152602001807f546865205061636b204861732059657420546f2042652053686970706564000081525060200191505060405180910390fd5b60066009600085815260200190815260200160002060030160006101000a81548160ff02191690836009811115610fde57fe5b0217905550600091505b6009600084815260200190815260200160002050600a82101561106e576006600860006009600087815260200190815260200160002060050185600a8110151561102e57fe5b0154815260200190815260200160002060070160006101000a81548160ff0219169083600981111561105c57fe5b02179055508180600101925050610fe8565b7fa8142743f8f70a4c26f3691cf4ed59718381fb2f18070ec52be1f1022d855557836040518082815260200191505060405180910390a1505050565b6110b2611457565b73ffffffffffffffffffffffffffffffffffffffff163373ffffffffffffffffffffffffffffffffffffffff1614156110fe573373ffffffffffffffffffffffffffffffffffffffff16ff5b565b61110933613520565b565b600080606080600080600760008881526020019081526020016000206000015495506007600088815260200190815260200160002060020160009054906101000a900473ffffffffffffffffffffffffffffffffffffffff169450600760008881526020019081526020016000206003018054600181600116156101000203166002900480601f0160208091040260200160405190810160405280929190818152602001828054600181600116156101000203166002900480156112105780601f106111e557610100808354040283529160200191611210565b820191906000526020600020905b8154815290600101906020018083116111f357829003601f168201915b50505050509350600760008881526020019081526020016000206004018054600181600116156101000203166002900480601f0160208091040260200160405190810160405280929190818152602001828054600181600116156101000203166002900480156112c15780601f10611296576101008083540402835291602001916112c1565b820191906000526020600020905b8154815290600101906020018083116112a457829003601f168201915b505050505092506007600088815260200190815260200160002060050160009054906101000a900460ff1660098111156112f757fe5b91506007600088815260200190815260200160002060010154905085858585858595509550955095509550955091939550919395565b6113363361357a565b565b611340611457565b73ffffffffffffffffffffffffffffffffffffffff163373ffffffffffffffffffffffffffffffffffffffff1614151561137957600080fd5b600073ffffffffffffffffffffffffffffffffffffffff16600360009054906101000a900473ffffffffffffffffffffffffffffffffffffffff1673ffffffffffffffffffffffffffffffffffffffff167f5c486528ec3e3f0ea91181cff8116f02bfa350e03b8b6f12e00765adbb5af85c60405160405180910390a36000600360006101000a81548173ffffffffffffffffffffffffffffffffffffffff021916908373ffffffffffffffffffffffffffffffffffffffff160217905550565b60006114508260006135d490919063ffffffff16565b9050919050565b6000600360009054906101000a900473ffffffffffffffffffffffffffffffffffffffff16905090565b6000600360009054906101000a900473ffffffffffffffffffffffffffffffffffffffff1673ffffffffffffffffffffffffffffffffffffffff163373ffffffffffffffffffffffffffffffffffffffff1614905090565b6114e16139d1565b838073ffffffffffffffffffffffffffffffffffffffff163373ffffffffffffffffffffffffffffffffffffffff161415156115ab576040517f08c379a00000000000000000000000000000000000000000000000000000000081526004018080602001828103825260338152602001807f46756e6374696f6e2043616c6c657220446f6573204e6f74204d61746368205481526020017f68652041737369676e656420416464726573730000000000000000000000000081525060400191505060405180910390fd5b85600060076000838152602001908152602001600020600001541480156115d3575060008114155b1515611647576040517f08c379a000000000000000000000000000000000000000000000000000000000815260040180806020018281038252601b8152602001807f54686973204261746368204944204973204475706c696361746564000000000081525060200191505060405180910390fd5b61165033612b5e565b151561165b57600080fd5b60008360a00190600981111561166d57fe5b9081600981111561167a57fe5b815250508683600001818152505085836040019073ffffffffffffffffffffffffffffffffffffffff16908173ffffffffffffffffffffffffffffffffffffffff16815250508483606001819052508383608001819052508260076000898152602001908152602001600020600082015181600001556020820151816001015560408201518160020160006101000a81548173ffffffffffffffffffffffffffffffffffffffff021916908373ffffffffffffffffffffffffffffffffffffffff160217905550606082015181600301908051906020019061175d929190613a29565b50608082015181600401908051906020019061177a929190613a29565b5060a08201518160050160006101000a81548160ff0219169083600981111561179f57fe5b02179055509050507f9d1715437821cd9a90cba5d1a68995c308d9ad9afc754ed9a1cff429760796e6876040518082815260200191505060405180910390a150505050505050565b60006117f233612b5e565b15156117fd57600080fd5b816004600981111561180b57fe5b6009600083815260200190815260200160002060030160009054906101000a900460ff16600981111561183a57fe5b1415156118af576040517f08c379a000000000000000000000000000000000000000000000000000000000815260040180806020018281038252601b8152602001807f546865205061636b204861732059657420546f2042652053706c64000000000081525060200191505060405180910390fd5b60056009600085815260200190815260200160002060030160006101000a81548160ff021916908360098111156118e257fe5b0217905550600091505b6009600084815260200190815260200160002050600a821015611972576005600860006009600087815260200190815260200160002060050185600a8110151561193257fe5b0154815260200190815260200160002060070160006101000a81548160ff0219169083600981111561196057fe5b021790555081806001019250506118ec565b7ff00b9a5725b80c54016f42114f6ed7792d22eecb116011c4afac29c57bef6c95836040518082815260200191505060405180910390a1505050565b6119b7336128e0565b15156119c257600080fd5b6119cb81613668565b50565b6119d7336128e0565b15156119e257600080fd5b81600660098111156119f057fe5b6008600083815260200190815260200160002060070160009054906101000a900460ff166009811115611a1f57fe5b141515611a94576040517f08c379a000000000000000000000000000000000000000000000000000000000815260040180806020018281038252601f8152602001807f546865205061636b204861732059657420546f2042652052656365697665640081525060200191505060405180910390fd5b823373ffffffffffffffffffffffffffffffffffffffff166008600083815260200190815260200160002060020160009054906101000a900473ffffffffffffffffffffffffffffffffffffffff1673ffffffffffffffffffffffffffffffffffffffff16141515611b6e576040517f08c379a000000000000000000000000000000000000000000000000000000000815260040180806020018281038252601a8152602001807f596f7520417265204e6f7420546865205669616c204f776e657200000000000081525060200191505060405180910390fd5b82600860008681526020019081526020016000206006018190555060076008600086815260200190815260200160002060070160006101000a81548160ff02191690836009811115611bbc57fe5b02179055507fe8c15c1a0d7da9d7568c06937a736b87e70692369757591508d3015aacc37405846040518082815260200191505060405180910390a150505050565b600080600080606080600080600080600860008c8152602001908152602001600020600001549950600860008c8152602001908152602001600020600101549850600860008c815260200190815260200160002060020160009054906101000a900473ffffffffffffffffffffffffffffffffffffffff169750600860008c815260200190815260200160002060030160009054906101000a900473ffffffffffffffffffffffffffffffffffffffff169650600860008c81526020019081526020016000206004018054600181600116156101000203166002900480601f016020809104026020016040519081016040528092919081815260200182805460018160011615610100020316600290048015611d5b5780601f10611d3057610100808354040283529160200191611d5b565b820191906000526020600020905b815481529060010190602001808311611d3e57829003601f168201915b50505050509550600860008c81526020019081526020016000206005018054600181600116156101000203166002900480601f016020809104026020016040519081016040528092919081815260200182805460018160011615610100020316600290048015611e0c5780601f10611de157610100808354040283529160200191611e0c565b820191906000526020600020905b815481529060010190602001808311611def57829003601f168201915b50505050509450600860008c8152602001908152602001600020600601549350600860008c815260200190815260200160002060070160009054906101000a900460ff166009811115611e5b57fe5b9250600860008c815260200190815260200160002060070160019054906101000a900473ffffffffffffffffffffffffffffffffffffffff169150600860008c815260200190815260200160002060080160009054906101000a900473ffffffffffffffffffffffffffffffffffffffff1690508989898989898989898999509950995099509950995099509950995099509193959799509193959799565b6000611f05336128e0565b1515611f1057600080fd5b8160036009811115611f1e57fe5b6009600083815260200190815260200160002060030160009054906101000a900460ff166009811115611f4d57fe5b141515611fe8576040517f08c379a00000000000000000000000000000000000000000000000000000000081526004018080602001828103825260238152602001807f546865205061636b204861732059657420546f2042652050757420466f72205381526020017f616c65000000000000000000000000000000000000000000000000000000000081525060400191505060405180910390fd5b6009600084815260200190815260200160002060020154803410151515612077576040517f08c379a000000000000000000000000000000000000000000000000000000000815260040180806020018281038252600f8152602001807f4e6f74205061696420456e6f756768000000000000000000000000000000000081525060200191505060405180910390fd5b6009600085815260200190815260200160002060020154600060046009600088815260200190815260200160002060030160006101000a81548160ff021916908360098111156120c357fe5b0217905550336009600088815260200190815260200160002060000160006101000a81548173ffffffffffffffffffffffffffffffffffffffff021916908373ffffffffffffffffffffffffffffffffffffffff160217905550336009600088815260200190815260200160002060040160006101000a81548173ffffffffffffffffffffffffffffffffffffffff021916908373ffffffffffffffffffffffffffffffffffffffff1602179055506009600087815260200190815260200160002060030160019054906101000a900473ffffffffffffffffffffffffffffffffffffffff1673ffffffffffffffffffffffffffffffffffffffff166108fc60096000898152602001908152602001600020600201549081150290604051600060405180830381858888f19350505050158015612204573d6000803e3d6000fd5b50600094505b6009600087815260200190815260200160002050600a851015612326573360086000600960008a815260200190815260200160002060050188600a8110151561224f57fe5b0154815260200190815260200160002060020160006101000a81548173ffffffffffffffffffffffffffffffffffffffff021916908373ffffffffffffffffffffffffffffffffffffffff1602179055503360086000600960008a815260200190815260200160002060050188600a811015156122c857fe5b0154815260200190815260200160002060070160016101000a81548173ffffffffffffffffffffffffffffffffffffffff021916908373ffffffffffffffffffffffffffffffffffffffff160217905550848060010195505061220a565b7f506d4dfc823033c4b5eb1c87a0c022bb7dd8be728202d72797fcdbbf5beb89c8866040518082815260200191505060405180910390a181340390503373ffffffffffffffffffffffffffffffffffffffff166108fc829081150290604051600060405180830381858888f193505050501580156123a8573d6000803e3d6000fd5b50505050505050565b60008060008060006123c1613aa9565b6123c9613aa9565b6009600089815260200190815260200160002060000160009054906101000a900473ffffffffffffffffffffffffffffffffffffffff169650600960008981526020019081526020016000206002015495506009600089815260200190815260200160002060040160009054906101000a900473ffffffffffffffffffffffffffffffffffffffff1693506009600089815260200190815260200160002060030160019054906101000a900473ffffffffffffffffffffffffffffffffffffffff1694506009600089815260200190815260200160002060030160009054906101000a900460ff1660098111156124bc57fe5b925060096000898152602001908152602001600020600501600a806020026040519081016040528092919082600a801561250b576020028201915b8154815260200190600101908083116124f7575b505050505090508686868686859650965096509650965096505091939550919395565b6125373361143a565b151561254257600080fd5b806007600981111561255057fe5b6008600083815260200190815260200160002060070160009054906101000a900460ff16600981111561257f57fe5b14151561261a576040517f08c379a00000000000000000000000000000000000000000000000000000000081526004018080602001828103825260238152602001807f546865205669616c204861732059657420546f2042652050757420466f72205381526020017f616c65000000000000000000000000000000000000000000000000000000000081525060400191505060405180910390fd5b60086000838152602001908152602001600020600601548034101515156126a9576040517f08c379a000000000000000000000000000000000000000000000000000000000815260040180806020018281038252600f8152602001807f4e6f74205061696420456e6f756768000000000000000000000000000000000081525060200191505060405180910390fd5b60086000848152602001908152602001600020600601546000600880600087815260200190815260200160002060070160006101000a81548160ff021916908360098111156126f457fe5b0217905550336008600087815260200190815260200160002060020160006101000a81548173ffffffffffffffffffffffffffffffffffffffff021916908373ffffffffffffffffffffffffffffffffffffffff160217905550336008600087815260200190815260200160002060080160006101000a81548173ffffffffffffffffffffffffffffffffffffffff021916908373ffffffffffffffffffffffffffffffffffffffff1602179055506008600086815260200190815260200160002060070160019054906101000a900473ffffffffffffffffffffffffffffffffffffffff1673ffffffffffffffffffffffffffffffffffffffff166108fc60096000888152602001908152602001600020600201549081150290604051600060405180830381858888f19350505050158015612835573d6000803e3d6000fd5b507fe7e22f20fe70233430b7615db5f383b3d638801efbbbc002a702a091a343ba1c856040518082815260200191505060405180910390a181340390503373ffffffffffffffffffffffffffffffffffffffff166108fc829081150290604051600060405180830381858888f193505050501580156128b8573d6000803e3d6000fd5b505050505050565b6128c933612b5e565b15156128d457600080fd5b6128dd816136c2565b50565b60006128f68260016135d490919063ffffffff16565b9050919050565b61290633612b5e565b151561291157600080fd5b806000600981111561291f57fe5b6007600083815260200190815260200160002060050160009054906101000a900460ff16600981111561294e57fe5b1415156129c3576040517f08c379a00000000000000000000000000000000000000000000000000000000081526004018080602001828103825260148152602001807f596f7520417265204e6f742050726f647563657200000000000000000000000081525060200191505060405180910390fd5b813373ffffffffffffffffffffffffffffffffffffffff166007600083815260200190815260200160002060020160009054906101000a900473ffffffffffffffffffffffffffffffffffffffff1673ffffffffffffffffffffffffffffffffffffffff16141515612a9d576040517f08c379a000000000000000000000000000000000000000000000000000000000815260040180806020018281038252601b8152602001807f596f7520417265204e6f7420546865204261746368204f776e6572000000000081525060200191505060405180910390fd5b60016007600085815260200190815260200160002060050160006101000a81548160ff02191690836009811115612ad057fe5b02179055507f06974b56d21c283fee3ed0905f648b2e17cb684cc8dc972ea99704bea957814e836040518082815260200191505060405180910390a1505050565b612b19611457565b73ffffffffffffffffffffffffffffffffffffffff163373ffffffffffffffffffffffffffffffffffffffff16141515612b5257600080fd5b612b5b8161371c565b50565b6000612b748260026135d490919063ffffffff16565b9050919050565b612b83613acd565b6000612b8d613b5f565b612b9633612b5e565b1515612ba157600080fd5b8360016009811115612baf57fe5b6007600083815260200190815260200160002060050160009054906101000a900460ff166009811115612bde57fe5b141515612c53576040517f08c379a000000000000000000000000000000000000000000000000000000000815260040180806020018281038252601e8152602001807f546865204261746368204861732059657420546f20426520546573746564000081525060200191505060405180910390fd5b843373ffffffffffffffffffffffffffffffffffffffff166007600083815260200190815260200160002060020160009054906101000a900473ffffffffffffffffffffffffffffffffffffffff1673ffffffffffffffffffffffffffffffffffffffff16141515612d2d576040517f08c379a000000000000000000000000000000000000000000000000000000000815260040180806020018281038252601b8152602001807f596f7520417265204e6f7420546865204261746368204f776e6572000000000081525060200191505060405180910390fd5b60026007600088815260200190815260200160002060050160006101000a81548160ff02191690836009811115612d6057fe5b02179055506006546007600088815260200190815260200160002060010181905550600654856020018181525050600285606001906009811115612da057fe5b90816009811115612dad57fe5b815250506007600087815260200190815260200160002060020160009054906101000a900473ffffffffffffffffffffffffffffffffffffffff16856000019073ffffffffffffffffffffffffffffffffffffffff16908173ffffffffffffffffffffffffffffffffffffffff16815250506007600087815260200190815260200160002060020160009054906101000a900473ffffffffffffffffffffffffffffffffffffffff16856080019073ffffffffffffffffffffffffffffffffffffffff16908173ffffffffffffffffffffffffffffffffffffffff1681525050600093505b8460c0015150600a84101561332b5760055483600001818152505060076000878152602001908152602001600020600001548360200181815250506007600087815260200190815260200160002060020160009054906101000a900473ffffffffffffffffffffffffffffffffffffffff16836040019073ffffffffffffffffffffffffffffffffffffffff16908173ffffffffffffffffffffffffffffffffffffffff16815250506007600087815260200190815260200160002060020160009054906101000a900473ffffffffffffffffffffffffffffffffffffffff16836060019073ffffffffffffffffffffffffffffffffffffffff16908173ffffffffffffffffffffffffffffffffffffffff1681525050600760008781526020019081526020016000206003018054600181600116156101000203166002900480601f0160208091040260200160405190810160405280929190818152602001828054600181600116156101000203166002900480156130535780601f1061302857610100808354040283529160200191613053565b820191906000526020600020905b81548152906001019060200180831161303657829003601f168201915b50505050508360800181905250600760008781526020019081526020016000206004018054600181600116156101000203166002900480601f01602080910402602001604051908101604052809291908181526020018280546001816001161561010002031660029004801561310a5780601f106130df5761010080835404028352916020019161310a565b820191906000526020600020905b8154815290600101906020018083116130ed57829003601f168201915b50505050508360a0018190525060028360e00190600981111561312957fe5b9081600981111561313657fe5b8152505082600860006005548152602001908152602001600020600082015181600001556020820151816001015560408201518160020160006101000a81548173ffffffffffffffffffffffffffffffffffffffff021916908373ffffffffffffffffffffffffffffffffffffffff16021790555060608201518160030160006101000a81548173ffffffffffffffffffffffffffffffffffffffff021916908373ffffffffffffffffffffffffffffffffffffffff160217905550608082015181600401908051906020019061320e929190613a29565b5060a082015181600501908051906020019061322b929190613a29565b5060c0820151816006015560e08201518160070160006101000a81548160ff0219169083600981111561325a57fe5b02179055506101008201518160070160016101000a81548173ffffffffffffffffffffffffffffffffffffffff021916908373ffffffffffffffffffffffffffffffffffffffff1602179055506101208201518160080160006101000a81548173ffffffffffffffffffffffffffffffffffffffff021916908373ffffffffffffffffffffffffffffffffffffffff16021790555090505082600001518560c0015185600a8110151561330957fe5b6020020181815250506001600554016005819055508380600101945050612e92565b8460096000600654815260200190815260200160002060008201518160000160006101000a81548173ffffffffffffffffffffffffffffffffffffffff021916908373ffffffffffffffffffffffffffffffffffffffff160217905550602082015181600101556040820151816002015560608201518160030160006101000a81548160ff021916908360098111156133c057fe5b021790555060808201518160030160016101000a81548173ffffffffffffffffffffffffffffffffffffffff021916908373ffffffffffffffffffffffffffffffffffffffff16021790555060a08201518160040160006101000a81548173ffffffffffffffffffffffffffffffffffffffff021916908373ffffffffffffffffffffffffffffffffffffffff16021790555060c08201518160050190600a61346a929190613c16565b509050506001600654016006819055507f9b3b66e2380b690bae22c73ef1428fb0c91e72fe14a4b6defa13035214187aff6006546040518082815260200191505060405180910390a1505050505050565b6134c433613818565b565b6134da81600061387290919063ffffffff16565b8073ffffffffffffffffffffffffffffffffffffffff167f28b26e7a3d20aedbc5f8f2ebf7da671c0491723a2b78f47a097b0e46dee0714260405160405180910390a250565b61353481600161392290919063ffffffff16565b8073ffffffffffffffffffffffffffffffffffffffff167f46520b63a5e163f23aef94d996e90fbbec9b8959d1dd37aeb9bcb5a3a20ac5c960405160405180910390a250565b61358e81600061392290919063ffffffff16565b8073ffffffffffffffffffffffffffffffffffffffff167fe3f5ed5f263f1f01764a96edfc7d025f511ec5f7d180e8816908b78bcf74f09860405160405180910390a250565b60008073ffffffffffffffffffffffffffffffffffffffff168273ffffffffffffffffffffffffffffffffffffffff161415151561361157600080fd5b8260000160008373ffffffffffffffffffffffffffffffffffffffff1673ffffffffffffffffffffffffffffffffffffffff16815260200190815260200160002060009054906101000a900460ff16905092915050565b61367c81600161387290919063ffffffff16565b8073ffffffffffffffffffffffffffffffffffffffff167fe6c049ab5a3c2ae523452b89e43795966fec2f89b7bf443d91781a7c696d301760405160405180910390a250565b6136d681600261387290919063ffffffff16565b8073ffffffffffffffffffffffffffffffffffffffff167f2977383b0207d39ef14220620b6cf3e6c9b6e78592af90baeef6614ed2fcd2c660405160405180910390a250565b600073ffffffffffffffffffffffffffffffffffffffff168173ffffffffffffffffffffffffffffffffffffffff161415151561375857600080fd5b8073ffffffffffffffffffffffffffffffffffffffff16600360009054906101000a900473ffffffffffffffffffffffffffffffffffffffff1673ffffffffffffffffffffffffffffffffffffffff167f5c486528ec3e3f0ea91181cff8116f02bfa350e03b8b6f12e00765adbb5af85c60405160405180910390a380600360006101000a81548173ffffffffffffffffffffffffffffffffffffffff021916908373ffffffffffffffffffffffffffffffffffffffff16021790555050565b61382c81600261392290919063ffffffff16565b8073ffffffffffffffffffffffffffffffffffffffff167fb78e9906c5bae930ccf756a5214c9855b1782f0eb30f9566de2384f034af48f360405160405180910390a250565b600073ffffffffffffffffffffffffffffffffffffffff168173ffffffffffffffffffffffffffffffffffffffff16141515156138ae57600080fd5b6138b882826135d4565b1515156138c457600080fd5b60018260000160008373ffffffffffffffffffffffffffffffffffffffff1673ffffffffffffffffffffffffffffffffffffffff16815260200190815260200160002060006101000a81548160ff0219169083151502179055505050565b600073ffffffffffffffffffffffffffffffffffffffff168173ffffffffffffffffffffffffffffffffffffffff161415151561395e57600080fd5b61396882826135d4565b151561397357600080fd5b60008260000160008373ffffffffffffffffffffffffffffffffffffffff1673ffffffffffffffffffffffffffffffffffffffff16815260200190815260200160002060006101000a81548160ff0219169083151502179055505050565b60c0604051908101604052806000815260200160008152602001600073ffffffffffffffffffffffffffffffffffffffff168152602001606081526020016060815260200160006009811115613a2357fe5b81525090565b828054600181600116156101000203166002900490600052602060002090601f016020900481019282601f10613a6a57805160ff1916838001178555613a98565b82800160010185558215613a98579182015b82811115613a97578251825591602001919060010190613a7c565b5b509050613aa59190613c56565b5090565b61014060405190810160405280600a90602082028038833980820191505090505090565b61020060405190810160405280600073ffffffffffffffffffffffffffffffffffffffff168152602001600081526020016000815260200160006009811115613b1257fe5b8152602001600073ffffffffffffffffffffffffffffffffffffffff168152602001600073ffffffffffffffffffffffffffffffffffffffff168152602001613b59613c7b565b81525090565b610140604051908101604052806000815260200160008152602001600073ffffffffffffffffffffffffffffffffffffffff168152602001600073ffffffffffffffffffffffffffffffffffffffff16815260200160608152602001606081526020016000815260200160006009811115613bd657fe5b8152602001600073ffffffffffffffffffffffffffffffffffffffff168152602001600073ffffffffffffffffffffffffffffffffffffffff1681525090565b82600a8101928215613c45579160200282015b82811115613c44578251825591602001919060010190613c29565b5b509050613c529190613c56565b5090565b613c7891905b80821115613c74576000816000905550600101613c5c565b5090565b90565b61014060405190810160405280600a906020820280388339808201915050905050905600a165627a7a72305820df8dafc92eb3885c2c05cdda19a839b57c0d33d9d06f579453418b76e49682e90029",
  "source": "pragma solidity ^ 0.4 .24;\n\nimport \"../core/Ownable.sol\";\nimport \"../accesscontrol/AccessControl.sol\";\n\n\n// Define a contract 'Supplychain'\ncontract SupplyChain is AccessControl, Ownable {\n\n  // Define a variable called 'BatchID' for Insulin Batches (BatchID)\n  uint BatchID;\n\n  // Define a variable called 'VialID' for Insulin Vials (VialID)\n  uint VialID;\n\n  // Define a variable called 'PackID' for Vials Pack (PackID)\n  uint PackID;\n\n  // Define a public mapping items \n  mapping(uint => Batch) batch;\n  mapping(uint => Vials) vial;\n  mapping(uint => Packs) pack;\n\n  // Define a public mapping 'itemsHistory' that maps the BatchID to an array of TxHash, \n  // that track its journey through the supply chain -- to be sent from DApp.\n  //mapping(uint => string[]) itemsHistory;\n\n  // Define enum 'State' with the following values:\n  enum State {\n    Produced, // 0\n    Tested, // 1\n    Packed, // 2\n    PackForSale, // 3\n    PackSold, // 4\n    Shipped, // 5\n    Received, // 6\n    VialForSale, // 7\n    VialSold, // 8\n    Consumed // 9\n  }\n\n  State constant defaultState = State.Produced;\n\n  struct Batch {\n    uint BatchID; // Unique Identifier for each insulin Batch\n    uint PackID; // Unique Identifier for each insulin Vial Pack\n    address originProducerID; // Metamask-Ethereum address of the Producer\n    string originProducerName; // Producer Name\n    string productNotes; // Product Notes\n    State itemState; // Product State as represented in the enum above\n  }\n\n  struct Vials {\n    uint VialID; // Unique Identifier for each insulin Vial\n    uint BatchID; // the Unique Identifier for the insulin Batch used in this vial\n    address ownerID; // Metamask-Ethereum address of the current owner\n    address originProducerID; // Metamask-Ethereum address of the Producer\n    string originProducerName; // Producer Name\n    string productNotes; // Product Notes\n    uint productPrice; // Product Price\n    State itemState; // Product State as represented in the enum above\n    address PharmacyID; // Metamask-Ethereum address of the Pharmacy\n    address consumerID; // Metamask-Ethereum address of the Consumer\n  }\n\n  struct Packs {\n    address ownerID; // Metamask-Ethereum address of the current owner\n    uint PackID; // Unique Identifier for each insulin Vial Pack\n    uint productPrice; // Product Price\n    State itemState; // Product State as represented in the enum above\n    address ProducerID; // Metamask-Ethereum address of the Producer\n    address PharmacyID; // Metamask-Ethereum address of the Pharmacy, who bought the pack\n    uint[10] VialArray; // array of vialID in the pack [limited to 10 vials per pack]\n\n  }\n\n  event Produced(uint BatchID);\n  event Tested(uint BatchID);\n  event Packed(uint PackID);\n  event PackForSale(uint PackID);\n  event PackSold(uint PackID);\n  event Shipped(uint PackID);\n  event Received(uint PackID);\n  event VialForSale(uint VialID);\n  event VialSold(uint VialID);\n  event Consumed(uint VialID);\n\n  // Define a modifer that checks to see if msg.sender == owner of the contract\n  modifier onlyOwner() {\n    require(msg.sender == owner());\n    _;\n  }\n\n  // Define a modifer that verifies the Caller\n  modifier verifyCaller(address _address) {\n    require(msg.sender == _address, \"Function Caller Does Not Match The Assigned Address\");\n    _;\n  }\n\n  // Define a modifier that checks if the paid amount is sufficient to cover the price\n  modifier paidEnough(uint _price) {\n    require(msg.value >= _price, \"Not Paid Enough\");\n    _;\n  }\n\n  // Define a modifier that checks the price and refunds the remaining balance\n  modifier checkValue(uint _price) {\n    _;\n    uint amountToRefund = msg.value - _price;\n    msg.sender.transfer(amountToRefund);\n  }\n\n  // Define a modifier that checks if abatch ID is Duplicated \n  modifier UniqueBatchID(uint _BatchID) {\n    require(batch[_BatchID].BatchID == 0 && _BatchID != 0, \"This Batch ID Is Duplicated\");\n    _;\n  }\n\n  // Define a modifier that checks if an item.state of a BatchID is Produced\n  modifier produced(uint _BatchID) {\n    require(batch[_BatchID].itemState == State.Produced, \"You Are Not Producer\");\n    _;\n  }\n\n  // Define a modifier that checks if an item.state of a BatchID is Produced\n  modifier isBatchOwner(uint _BatchID) {\n    require(batch[_BatchID].originProducerID == msg.sender, \"You Are Not The Batch Owner\");\n    _;\n  }\n\n  // Define a modifier that checks if an item.state of a BatchID is Produced\n  modifier isVialOwner(uint _VialID) {\n    require(vial[_VialID].ownerID == msg.sender, \"You Are Not The Vial Owner\");\n    _;\n  }\n\n  // Define a modifier that checks if an item.state of a BatchID is Tested\n  modifier tested(uint _BatchID) {\n    require(batch[_BatchID].itemState == State.Tested, \"The Batch Has Yet To Be Tested\");\n    _;\n  }\n\n  // Define a modifier that checks if an item.state of a PackID is packed\n  modifier packed(uint _PackID) {\n    require(pack[_PackID].itemState == State.Packed, \"The Batch Has Yet To Be Packed\");\n    _;\n  }\n\n  // Define a modifier that checks if an item.state of a _PackID is PackForSale\n  modifier packForSale(uint _PackID) {\n    require(pack[_PackID].itemState == State.PackForSale, \"The Pack Has Yet To Be Put For Sale\");\n    _;\n  }\n\n  // Define a modifier that checks if an item.state of a _PackID is PackSold\n  modifier packSold(uint _PackID) {\n    require(pack[_PackID].itemState == State.PackSold, \"The Pack Has Yet To Be Spld\");\n    _;\n  }\n\n  // Define a modifier that checks if an item.state of a _PackID is Shipped\n  modifier shipped(uint _PackID) {\n    require(pack[_PackID].itemState == State.Shipped, \"The Pack Has Yet To Be Shipped\");\n    _;\n  }\n\n  // Define a modifier that checks if an item.state of a _VialID is Received\n  modifier received(uint _VialID) {\n    require(vial[_VialID].itemState == State.Received, \"The Pack Has Yet To Be Received\");\n    _;\n  }\n\n  // Define a modifier that checks if an item.state of a _VialID is VialsForSale\n  modifier vialForSale(uint _VialID) {\n    require(vial[_VialID].itemState == State.VialForSale, \"The Vial Has Yet To Be Put For Sale\");\n    _;\n  }\n\n  // Define a modifier that checks if an item.state of a _VialID is VialSold\n  modifier vialSold(uint _VialID) {\n    require(vial[_VialID].itemState == State.VialSold, \"The Vial Has Yet To Be Sold\");\n    _;\n  }\n\n  // Define a modifier that checks if an item.state of a _VialID is Consumed\n  modifier consumed(uint _VialID) {\n    require(vial[_VialID].itemState == State.Consumed, \"The Vial Has Yet To Be Consumed\");\n    _;\n  }\n\n  constructor() public payable {\n    VialID = 1;\n    BatchID = 1;\n    PackID = 1;\n  }\n\n  // Define a function 'kill' if required\n  function kill() public {\n    if (msg.sender == owner()) {\n      selfdestruct(msg.sender);\n    }\n  }\n\n  function Produce_New_Batch(uint _BatchID, address _originProducerID, string _originProducerName, string _productNotes) public\n  verifyCaller(_originProducerID)\n  UniqueBatchID(_BatchID)\n  onlyProducer() {\n    // Add the new batch\n    Batch memory NewInsulinBatch;\n    NewInsulinBatch.itemState = State.Produced;\n    NewInsulinBatch.BatchID = _BatchID;\n    NewInsulinBatch.originProducerID = _originProducerID;\n    NewInsulinBatch.originProducerName = _originProducerName;\n    NewInsulinBatch.productNotes = _productNotes;\n\n    batch[_BatchID] = NewInsulinBatch;\n\n    //  Emit the appropriate event\n    emit Produced(_BatchID);\n\n  }\n\n  function TestBatch(uint _BatchID) public\n  onlyProducer()\n  produced(_BatchID)\n  isBatchOwner(_BatchID) {\n    // Update the appropriate fields\n    batch[_BatchID].itemState = State.Tested;\n\n    // Emit the appropriate event\n    emit Tested(_BatchID);\n\n  }\n\n  function Pack_insulin_vials(uint _batchID) public\n  onlyProducer()\n  tested(_batchID)\n  isBatchOwner(_batchID) {\n    // Update the appropriate fields\n    batch[_batchID].itemState = State.Packed;\n    batch[_batchID].PackID = PackID;\n    Packs memory NewInsulinVialPack;\n    NewInsulinVialPack.PackID = PackID;\n    NewInsulinVialPack.itemState = State.Packed;\n    NewInsulinVialPack.ownerID = batch[_batchID].originProducerID;\n    NewInsulinVialPack.ProducerID = batch[_batchID].originProducerID;\n\n    for (uint i = 0; i < NewInsulinVialPack.VialArray.length; i++) {\n      Vials memory NewInsulinVial;\n      NewInsulinVial.VialID = VialID;\n      NewInsulinVial.BatchID = batch[_batchID].BatchID;\n      NewInsulinVial.ownerID = batch[_batchID].originProducerID;\n      NewInsulinVial.originProducerID = batch[_batchID].originProducerID;\n      NewInsulinVial.originProducerName = batch[_batchID].originProducerName;\n      NewInsulinVial.productNotes = batch[_batchID].productNotes;\n      NewInsulinVial.itemState = State.Packed;\n      vial[VialID] = NewInsulinVial;\n      NewInsulinVialPack.VialArray[i] = NewInsulinVial.VialID;\n      VialID = VialID + 1;\n\n    }\n\n    pack[PackID] = NewInsulinVialPack;\n    PackID = PackID + 1;\n    // Emit the appropriate event\n    emit Packed(PackID);\n  }\n\n  function Add_Insulin_Pack_For_Sale(uint _PackID, uint _Price) public\n  onlyProducer()\n  packed(_PackID)\n  isVialOwner(_PackID) {\n    pack[_PackID].productPrice = _Price;\n    pack[_PackID].itemState = State.PackForSale;\n\n    emit PackForSale(_PackID);\n  }\n\n\n  function Purchase_insulin_Pack(uint _PackID) public payable\n  onlyPharmacy()\n  packForSale(_PackID)\n  paidEnough(pack[_PackID].productPrice)\n  checkValue(pack[_PackID].productPrice) {\n\n    pack[_PackID].itemState = State.PackSold;\n    pack[_PackID].ownerID = msg.sender;\n    pack[_PackID].PharmacyID = msg.sender;\n\n    pack[_PackID].ProducerID.transfer(pack[_PackID].productPrice);\n\n    for (uint i = 0; i < pack[_PackID].VialArray.length; i++) {\n      vial[pack[_PackID].VialArray[i]].ownerID = msg.sender;\n      vial[pack[_PackID].VialArray[i]].PharmacyID = msg.sender;\n    }\n\n    emit PackSold(_PackID);\n\n  }\n\n  function Ship_insulin_Pack(uint _PackID) public\n  onlyProducer()\n  packSold(_PackID) {\n\n    pack[_PackID].itemState = State.Shipped;\n\n    for (uint i = 0; i < pack[_PackID].VialArray.length; i++) {\n      vial[pack[_PackID].VialArray[i]].itemState = State.Shipped;\n    }\n    emit Shipped(_PackID);\n  }\n\n  function Receive_insulin_Pack(uint _PackID) public\n  shipped(_PackID) {\n\n    pack[_PackID].itemState = State.Received;\n\n    for (uint i = 0; i < pack[_PackID].VialArray.length; i++) {\n      vial[pack[_PackID].VialArray[i]].itemState = State.Received;\n    }\n\n\n    emit Received(_PackID);\n\n  }\n\n\n  function Add_Insulin_Vial_For_Sale(uint _VialID, uint _Price) public\n  onlyPharmacy()\n  received(_VialID)\n  isVialOwner(_VialID) {\n\n    vial[_VialID].productPrice = _Price;\n    vial[_VialID].itemState = State.VialForSale;\n\n    emit VialForSale(_VialID);\n  }\n\n  function Purchase_Insulin_Vial(uint _VialID) public payable\n  onlyConsumer()\n  vialForSale(_VialID)\n  paidEnough(vial[_VialID].productPrice)\n  checkValue(vial[_VialID].productPrice) {\n\n    vial[_VialID].itemState = State.VialSold;\n    vial[_VialID].ownerID = msg.sender;\n    vial[_VialID].consumerID = msg.sender;\n\n    vial[_VialID].PharmacyID.transfer(pack[_VialID].productPrice);\n\n    emit VialSold(_VialID);\n  }\n\n  function Consume_Insulin(uint _VialID) public\n  onlyConsumer()\n  isVialOwner(_VialID) {\n\n    vial[_VialID].itemState = State.Consumed;\n\n    emit Consumed(_VialID);\n  }\n\n\n  // Define a function 'fetchItemBufferOne' that fetches the data\n  function fetchBatchBuffer(uint _BatchID) public view returns\n    (\n      uint batchID,\n      address originProducerID,\n      string originProducerName,\n      string productNotes,\n      uint itemState,\n      uint packID\n\n    ) {\n      // Assign values to the 4 parameters\n      batchID = batch[_BatchID].BatchID;\n      originProducerID = batch[_BatchID].originProducerID;\n      originProducerName = batch[_BatchID].originProducerName;\n      productNotes = batch[_BatchID].productNotes;\n      itemState = uint(batch[_BatchID].itemState);\n      packID = batch[_BatchID].PackID;\n\n\n      /*\n\n          assert.equal(resultBufferOne[0].toNumber(), VialID, 'Error: Invalid item VialID')\n          assert.equal(resultBufferOne[1], BatchID, 'Error: Invalid item BatchID')\n          assert.equal(resultBufferOne[2], accounts[1], 'Error: Invalid item ItemOwnerID')\n          assert.equal(resultBufferOne[3], originProducerID, 'Error: Missing or Invalid originProducerID')\n          assert.equal(resultBufferOne[4], originProducerName, 'Error: Missing or Invalid originProducerName')\n          assert.equal(resultBufferOne[6], productNotes, 'Error: Missing or Invalid productNotes')\n          assert.equal(resultBufferOne[8].toNumber(), 2, 'Error: Missing or Invalid itemState')\n\n\n      */\n      return (\n        batchID,\n        originProducerID,\n        originProducerName,\n        productNotes,\n        itemState,\n        packID\n\n      );\n    }\n\n  // Define a function 'fetchPackBuffer' that fetches the data\n  function fetchPackBuffer(uint _PackID) public view returns\n    (\n      address ownerID, //0\n      uint productPrice, //1\n      address ProducerID, //2\n      address PharmacyID, //3\n      uint itemState, //4\n      uint[10] //5\n\n    ) {\n      // Assign values to the 4 parameters\n      ownerID = pack[_PackID].ownerID;\n      productPrice = pack[_PackID].productPrice;\n      PharmacyID = pack[_PackID].PharmacyID;\n      ProducerID = pack[_PackID].ProducerID;\n      itemState = uint(pack[_PackID].itemState);\n      uint[10] memory VialArray;\n      VialArray = pack[_PackID].VialArray;\n\n      /*\n            assert.equal(resultPackBuffer[0], accounts[1], 'Error: Invalid item Owner')\n            assert.equal(resultPackBuffer[1], 10, 'Error: Invalid item productPrice')\n            assert.equal(resultPackBuffer[2], accounts[2], 'Error: Invalid item PharmacyID')\n            assert.equal(resultPackBuffer[3], accounts[1], 'Error: Invalid item ProducerID')\n            assert.equal(resultPackBuffer[4].toNumber(), 1, 'Error: Invalid Pack State')\n            \n            for (i = 0; i < 6; i++) {\n              let index = i + 4;\n              const resultVialBuffer = await supplyChain.fetchVialBuffer.call(resultPackBuffer[index].toNumber())\n              assert.equal(resultVialBuffer[0].toNumber(), resultPackBuffer[index].toNumber(), 'Error: Invalid item VialID')\n              assert.equal(resultVialBuffer[1], BatchID, 'Error: Invalid item BatchID')\n              assert.equal(resultVialBuffer[8].toNumber(), 2, 'Error: Missing or Invalid itemState')\n            }\n      */\n\n      return (\n        ownerID,\n        productPrice,\n        ProducerID,\n        PharmacyID,\n        itemState,\n        VialArray\n\n      );\n    }\n\n  // Define a function 'fetchVialBuffer' that fetches the data\n  function fetchVialBuffer(uint _vialID) public view returns\n    (\n      uint vialID,\n      uint batchID,\n      address ownerID,\n      address originProducerID,\n      string originProducerName,\n      //      uint productID,\n      string productNotes,\n      uint productPrice,\n      uint itemState,\n      address PharmacyID,\n      address consumerID\n    ) {\n      //Assign values to the 9 parameters\n      vialID = vial[_vialID].VialID;\n      batchID = vial[_vialID].BatchID;\n      ownerID = vial[_vialID].ownerID;\n      originProducerID = vial[_vialID].originProducerID;\n      originProducerName = vial[_vialID].originProducerName;\n      productNotes = vial[_vialID].productNotes;\n      productPrice = vial[_vialID].productPrice;\n      //productID = vial[_vialID].productID;\n      itemState = uint(vial[_vialID].itemState);\n      PharmacyID = vial[_vialID].PharmacyID;\n      consumerID = vial[_vialID].consumerID;\n\n      /*   \n          assert.equal(resultVialBuffer[0], VialID, 'Error: Invalid item VialID')\n          assert.equal(resultVialBuffer[1], batchID, 'Error: Invalid item batchID')\n          assert.equal(resultVialBuffer[2], accounts[1], 'Error: Invalid item ownerID')\n          assert.equal(resultVialBuffer[3], accounts[1], 'Error: Invalid item originProducerID')\n          assert.equal(resultVialBuffer[4], originProducerName, 'Error: Invalid item originProducerName')\n          assert.equal(resultVialBuffer[5], productNotes, 'Error: Invalid item productNotes')\n          assert.equal(resultVialBuffer[6], productPrice, 'Error: Invalid item productPrice')\n          assert.equal(resultVialBuffer[7].toNumber(), itemState, 'Error: Invalid item itemState')\n          assert.equal(resultVialBuffer[8], accounts[2], 'Error: Invalid item PharmacyID')\n          assert.equal(resultVialBuffer[9], accounts[3], 'Error: Invalid item consumerID')\n      */\n\n\n      return (\n        vialID, //0\n        batchID, //1\n        ownerID, //2\n        originProducerID, //3\n        originProducerName, //4\n        // productID, //5\n        productNotes, //5\n        productPrice, //6\n        itemState, //7\n        PharmacyID, //8\n        consumerID //9\n      );\n    }\n}",
  "sourcePath": "/home/isb/Desktop/Udacity Blockchain/Ethereum/p7/contracts/base/SupplyChain.sol",
  "compiler": {
    "name": "solc",
    "version": "0.4.25+commit.59dbf8f1.Emscripten.clang"
  },
  "schemaVersion": "2.0.2",
  "updatedAt": "2019-03-20T19:22:48.015Z"
}